:1010D6000000FF00FF0066764BE8BFAAAAAACCCCA8
:0110E600CC3D
:091112000111000112000113009B
:0111250022A7
:0E10F700438910758DEC758B78D2ABC28E22BA
:03111C00C28E225E
:03111F00C28E225B
:1010E700438901758C4CE4F58A8F09D2A9D28C22E9
:03112200C28C225A
:10100C00D2AC43AF01438780759850438E40538ECA
:10101C00FE53890F438920758BFA758DFAC2ABD2BA
:10102C008E438E08759A50438E04759CFA438E102D
:01103C002291
:0310C5001210C83E
:0E10C800C2ACC2998F993099FDC299D2AC2268
:1010B10053AFFE539AFD8F9BE59A30E1FB539AFDA6
:0410C10043AF012216
:10103D007F607EEA1210567F607EEA1210567F6046
:09104D007EEA1210567F607EEA73
:10105600EF1F70011E144E6007000000000080F0B4
:011066002267
:061067008B388A39893A3A
:10106D00E4FEEEC39D5015AB38AA39A93A8E8275B0
:0E107D00830012090FFF1210C80E80E67F00DC
:01108B002242
:100FA400E4F50CF50F7F041210E7900100EBF0A3B9
:100FB400EAF0A3E9F0A37406F0E4900168F0E50C0C
:100FC4007004E50F60F8121122E50FB401037F00ED
:040FD400227F012255
:10108C0078147C007D007BFF7A1079D67E007F0679
:10109C001208D0E4FE74142EF8E6FF1210C80EBE2F
:0410AC0006F37F00C8
:0110B000221D
:100FD800E4F50CF50F7F011210E7900100EBF0A388
:100FE800EAF0A3E9F0A37406F0E4900168F0E50CD8
:100FF8007004E50F60F8121122E50FB401037F00B9
:04100800227F012220
:060D8E008B288A29892A46
:100D9400E412093CAB28AA29A92A90000112094EA1
:100DA40090000274FF12094E900003740512094E5C
:100DB40090000312090FF40490000412094E9000ED
:100DC4000574D412094E90000512090FFF90000615
:100DD400741412094E90000612090F2FFF90000799
:100DE400ED12094E90000712090F2FFF900008E53D
:100DF4002C12094E90000812090F2FFF900009E5EC
:100E04002D12094E90000912090F2FF40490000AC4
:100E140012094E90000BE412094E7D0C121067EF7C
:100E240060037F0222AB28AA29A92A120FD8EF60F7
:100E3400037F0322AB28AA29A92A120FA4EF600377
:050E44007F04227F0085
:010E49002286
:080B30008B288A29892A8D2BEC
:100B380078337C007D007BFF7A1079DC7E007F05AE
:100B48001208D0AB28AA29A92AE412093CAB28AA82
:100B580029A92A90000112094E90000274FF120977
:100B68004EE530240490000312094E900003120948
:100B78000FF40490000412094E90000574D4120971
:100B88004E90000512090FF532900006744A1209BA
:100B98004E90000612090F2532F532900007E52B1A
:100BA80012094E90000712090F2532F532900008FD
:100BB800E52C12094E90000812090F2532F532E48F
:100BC800F531E531C39530503BAB2DAA2EA92F85C1
:100BD800318275830012090FFFE5312409F582E49B
:100BE80033F583AB28AA29A92AEF12094EAB2DAAFF
:100BF8002EA92F85318275830012090F2532F5320F
:100C0800053180BEE532F404FFE5312409F582E4BC
:100C180033F583AB28AA29A92AEF12094E740A25AD
:100C280031F582E433F583E412094EE531240BFDF6
:100C3800121067EF60037F0222AB28AA29A92A12A3
:100C48000FD8EF60037F0322AB28AA29A92A120F25
:100C5800A4EF60037F042278337C007D00AB28AAD0
:100C680029A92A7E007F05120B0CEF7002FF227F54
:010C78000576
:010C79002258
:100C7A0078227C007D007BFF7A1079E17E007F0379
:100C8A001208D078257C007D007BFF7A1079E47EFB
:100C9A00007F031208D01211251210F712100CD27D
:100CAA00AFC2A512103D121052D2A5E4F50CF50FF1
:100CBA007F551210C5FF1210C51210C87B017A01A8
:100CCA007904F52C752D017D01120D8EE4F5219024
:100CDA000107E02407FFE433FEC3E5219FEE6480A9
:100CEA00F8748098501474042521F582E43401F5CF
:100CFA0083E0FF1210B1052180D5E4F52CF52DF51E
:100D0A002EF52FF5307B017A0179047D01120B3023
:100D1A00AE0712111CEE7031F52174222521F8E676
:100D2A00FF1210B10521E521C3940340EDD2B5D2DB
:100D3A00B6E51160FCC2B6E51360FCE4F511F513E3
:100D4A0012111FF510C2B580B1BE05AEE4F52174CB
:100D5A00252521F8E6FF1210B10521E521C39403E8
:100D6A0040EDD2B7D2B6E5127007B2B612103D8086
:100D7A00F5E51360FCE4F512F51312111FF510C224
:040D8A00B7020D049B
:03002300020E4A80
:100E4A00C0E0C0F0C083C082C0D075D000C000C06E
:100E5A0001C002C003C007309863C298900103E042
:100E6A0014F0E06045900100E0FBA3E0FAA3E0F98A
:100E7A00E59912093C900168E004F0E0B4041F907F
:100E8A000100E0FBA3E0FAA3E0F91208F6FF7005FF
:100E9A00EF240280051208F62403900103F0900162
:100EAA0001E475F0011209708013900100E0FBA3C0
:100EBA00E0FAA3E0F9E59912093C750F01309902AD
:100ECA00C299D007D003D002D001D000D0D0D082AE
:070EDA00D083D0F0D0E0321C
:03000B00021105DA
:0D110500758C4C758A00D50903750C0132FC
:03001B00020F6D64
:040F6D00C0E0C0D050
:100F7100758DEC758B780508E508B432217508008C
:100F81000510E510B401057511018012E510B403D7
:0E0F9100057512018008E510B4050375130103
:050F9F00D0D0D0E032CB
:03000000020EE10C
:0C0EE100787FE4F6D8FD75813A020F28F6
:10080000E709F608DFFA8046E709F208DFFA803EDA
:1008100088828C83E709F0A3DFFA8032E309F608C7
:10082000DFFA8078E309F208DFFA807088828C832F
:10083000E309F0A3DFFA806489828A83E0A3F608E3
:10084000DFFA805889828A83E0A3F208DFFA804CBD
:1008500080D280FA80C680D4806980F28033801094
:1008600080A680EA809A80A880DA80E280CA8033FD
:1008700089828A83ECFAE493A3C8C582C8CCC58375
:10088000CCF0A3C8C582C8CCC583CCDFE9DEE78045
:100890000D89828A83E493A3F608DFF9ECFAA9F0C4
:1008A000EDFB2289828A83ECFAE0A3C8C582C8CC1A
:1008B000C583CCF0A3C8C582C8CCC583CCDFEADE33
:1008C000E880DB89828A83E493A3F208DFF980CC95
:1008D00088F0EF60010E4E60C388F0ED2402B4048E
:1008E0000050B9F582EB2402B4040050AF23234535
:0608F00082239008507302
:1008F600BB010689828A83E0225002E722BBFE0200
:09090600E32289828A83E4932232
:10090F00BB010CE58229F582E5833AF583E022509D
:10091F0006E92582F8E622BBFE06E92582F8E222E7
:0D092F00E58229F582E5833AF583E4932201
:10093C00BB010689828A83F0225002F722BBFE019A
:02094C00F32294
:10094E00F8BB010DE58229F582E5833AF583E8F0DF
:10095E00225006E92582C8F622BBFE05E92582C88B
:02096E00F22273
:10097000C5F0F8A3E028F0C5F0F8E5821582700212
:060980001583E038F022AF
:10098600E3F5F009E208B5F06BDFF58067E3F5F013
:1009960009E608B5F05EDFF5805A87F009E608B586
:1009A600F052DFF6804E87F009E208B5F046DFF632
:1009B600804288828C8387F009E0A3B5F036DFF6A3
:1009C600803288828C8387F009E493A3B5F025DF13
:1009D600F5802188828C83E3F5F009E0A3B5F01455
:1009E600DFF5801088828C83E3F5F009E493A3B5E4
:1009F600F002DFF4020AB5808780E9809080D48017
:100A06003E8015806E807E809D80B7808D80A3801D
:100A1600518074803C020AC189828A83ECFAE4938D
:100A2600F5F0A3C8C582C8CCC583CCE493A3C8C5DA
:100A360082C8CCC583CCB5F076DFE3DEE180708971
:100A4600828A83E493F5F0A3E208B5F062DFF480CE
:100A56005E89828A83E0F5F0A3E608B5F051DFF5FA
:100A6600804D89828A83E0F5F0A3E208B5F040DF85
:100A7600F5803C89828A83E493F5F0A3E608B5F015
:100A86002EDFF4802A8002805789828A83ECFAE47A
:100A960093F5F0A3C8C582C8CCC583CCE0A3C8C56E
:100AA60082C8CCC583CCB5F006DFE4DEE280007FE9
:100AB600FFB5F0020F2240027F012289828A83EC71
:100AC600FAE0F5F0A3C8C582C8CCC583CCE0A3C8BC
:100AD600C582C8CCC583CCB5F0D5DFE5DEE380CFD3
:100AE60089828A83ECFAE0F5F0A3C8C582C8CCC532
:100AF60083CCE493A3C8C582C8CCC583CCB5F0AF7C
:100B0600DFE4DEE280A988F0EF60010E4E60ABED17
:100B16002402B404005098F582EB2402B404005079
:0A0B26008E23234582239009FD73FE
:100EED00020C7AE493A3F8E493A34003F68001F295
:100EFD0008DFF48029E493A3F85407240CC8C33306
:100F0D00C4540F4420C8834004F456800146F6DFD4
:100F1D00E4800B0102040810204080901112E47E41
:100F2D00019360BCA3FF543F30E509541FFEE493C9
:100F3D00A360010ECF54C025E060A840B8E493A390
:100F4D00FAE493A3F8E493A3C8C582C8CAC583CABB
:100F5D00F0A3C8C582C8CAC583CADFE9DEE780BE73
:01111B0000D3
:00000001FF
