:0C1177000000FF00FF00AAAAAACCCCCC0C
:1010F9000436B69B26EE01230001300001350001BC
:0B11090025000133000124000132002A
:1011150053B1DF43B22053B1BF43B24053B17F4314
:09112500B280C2B5C2B7C2B62205
:10112E00538EBF53890F438910E4F58B758D4CC2D6
:04113E008FC28E22AC
:03118300D28C22E9
:03118600D28E22E4
:03118900C28E22F1
:10116700438901758C4CE4F58A8F26D2A9D28C224B
:01118C002240
:10100900D2AC43AF01438780759850438E40538ECD
:10101900FE53890F438920758BFA758DFAC2ABD2BD
:101029008E438E08759A50438E04759CFA438E1030
:011039002294
:031156001211591A
:0E115900C2ACC2998F993099FDC299D2AC22D6
:1011420053AFFE539AFD8F9BE59A30E1FB539AFD14
:0411520043AF012284
:1010DC008F438E428D418C40784074FF120988EC0E
:0D10EC004D4E4F6007000000000080EC2218
:061092008B1D8A1E891F60
:10109800E4FEEEC39D5015AB1DAA1EA91F8E8275D6
:0E10A800830012090FFF1211590E80E67F001F
:0110B6002217
:10103A00E4F529F52F900100EBF0A3EAF0A3E9F01B
:10104A00A37406F0E4900168F0E5297004E52F60C6
:0C105A00F8E52FB401037F00227F012283
:1010B700783A7C007D007BFF7A1179777E007F0686
:1010C7001208D0E4FE743A2EF8E6FF1211590EBE4C
:0410D70006F37F009D
:0110DB0022F2
:10106600E4F52DF52F900100EBF0A3EAF0A3E9F0EB
:10107600A37406F0E4900168F0E52D7004E52F6096
:0C108600F8E52FB401037F00227F012257
:060D7F008B118A1289139A
:100D8500E412093CAB11AA12A91390000112094EF5
:100D950090000274FF12094E900003740512094E6B
:100DA50090000312090FF40490000412094E9000FC
:100DB5000574D412094E90000512090FFF90000624
:100DC500741412094E90000612090F2FFF900007A8
:100DD500ED12094E90000712090F2FFF900008E54C
:100DE5001512094E90000812090F2FFF900009E512
:100DF5001612094E90000912090F2FF40490000AEB
:100E050012094E90000BE412094E7D0C121092EF60
:100E150060037F0222AB11AA12A913121066EF60BC
:100E2500037F0322AB11AA12A91312103AEF600334
:050E35007F04227F0094
:010E3A002295
:060B50008B118A128913CB
:100B5600E412093CAB11AA12A91390000112094E26
:100B660090000274FF12094EE51924049000031246
:100B7600094E90000312090FF40490000412094E66
:100B860090000574D412094E90000512090FF51C49
:100B9600900006744A12094E90000612090F251C91
:100BA600F51C900007ED12094E90000712090F255B
:100BB6001CF51C900008E51512094E900008120954
:100BC6000F251CF51CE4F51AE51AC39519503BAB25
:100BD60016AA17A918851A8275830012090FFFE550
:100BE6001A2409F582E433F583AB11AA12A913EF8F
:100BF60012094EAB16AA17A918851A827583001218
:100C0600090F251CF51C051A80BEE51CF404FFE53A
:100C16001A2409F582E433F583AB11AA12A913EF5E
:100C260012094E740A251AF582E433F583E4120993
:100C36004EE51A240BFD121092EF60037F0222ABE1
:100C460011AA12A913121066EF60037F0322AB11DB
:100C5600AA12A91312103AEF60037F0422AB11E522
:100C660013240DF9E43512FA78367C007D007E00F7
:0C0C76007F04120B2CEF7002FF227F05A0
:010C8200224F
:100C8300780B7C007D007BFF7A11797D7E007F03EA
:100C93001208D0780E7C007D007BFF7A1179807E6C
:100CA300007F031208D01211151210097F011211CF
:100CB30067D2AFE4F52F7F55121156FF121156126A
:100CC30011597B017A017904F5157516017D01121D
:100CD3000D7FE4FE900107E02407FDE433FCEEC33F
:100CE3009DEC6480F8748098501274042EF582E4AD
:100CF3003401F583E0FF1211420E80D8C2B5C2B7AA
:100D0300E4F531E52360FCE4F523F515F516F51755
:100D1300F518F5197B017A0179047D01120B508FC7
:100D23000A121142E50A7006E53164046009E50A16
:100D33007018E531B40513C2B7E4F524F532D2B522
:100D4300D2B67525017533018025E50AB40506E59C
:100D53003164046009E50AB4051DE5317019C2B5B3
:100D6300E4F525F533D2B7D2B6752401753201F512
:0C0D73002AF534F52EF522850A31808720
:03002300020EE6E4
:100EE600C0E0C0F0C083C082C0D075D000C000C0D2
:100EF60001C002C003C007309863C298900103E0A6
:100F060014F0E06045900100E0FBA3E0FAA3E0F9ED
:100F1600E59912093C900168E004F0E0B4041F90E2
:100F26000100E0FBA3E0FAA3E0F91208F6FF700562
:100F3600EF240280051208F62403900103F09001C5
:100F460001E475F0011209708013900100E0FBA323
:100F5600E0FAA3E0F9E59912093C752F01309902F0
:100F6600C299D007D003D002D001D000D0D0D08211
:070F7600D083D0F0D0E0327F
:03000B00020E3BA7
:040E3B00C0E0C0D083
:100E3F00758C4C758A000521E521B41406752100C7
:100E4F00752301E52D700D0530E530B401067530C1
:100E5F0000752D01E529700D0535E535B4040675CE
:100E6F003500752901E533600F052AE52AB40A0814
:100E7F00752A00753300C2B6E525600F052EE52EE5
:100E8F00B43208752E00752500C2B5E53260300505
:100E9F0034E534B40A04C2B68025E534B41404D260
:100EAF00B6801CE534B41E04C2B68013E534B428F2
:100EBF0004D2B6800AE534B43205753200C2B6E505
:100ECF0024600F0522E522B4320875220075240034
:020EDF00C2B798
:050EE100D0D0D0E0328A
:03000000020F7D6F
:0C0F7D00787FE4F6D8FD758143020FC4B4
:10080000E709F608DFFA8046E709F208DFFA803EDA
:1008100088828C83E709F0A3DFFA8032E309F608C7
:10082000DFFA8078E309F208DFFA807088828C832F
:10083000E309F0A3DFFA806489828A83E0A3F608E3
:10084000DFFA805889828A83E0A3F208DFFA804CBD
:1008500080D280FA80C680D4806980F28033801094
:1008600080A680EA809A80A880DA80E280CA8033FD
:1008700089828A83ECFAE493A3C8C582C8CCC58375
:10088000CCF0A3C8C582C8CCC583CCDFE9DEE78045
:100890000D89828A83E493A3F608DFF9ECFAA9F0C4
:1008A000EDFB2289828A83ECFAE0A3C8C582C8CC1A
:1008B000C583CCF0A3C8C582C8CCC583CCDFEADE33
:1008C000E880DB89828A83E493A3F208DFF980CC95
:1008D00088F0EF60010E4E60C388F0ED2402B4048E
:1008E0000050B9F582EB2402B4040050AF23234535
:0608F00082239008507302
:1008F600BB010689828A83E0225002E722BBFE0200
:09090600E32289828A83E4932232
:10090F00BB010CE58229F582E5833AF583E022509D
:10091F0006E92582F8E622BBFE06E92582F8E222E7
:0D092F00E58229F582E5833AF583E4932201
:10093C00BB010689828A83F0225002F722BBFE019A
:02094C00F32294
:10094E00F8BB010DE58229F582E5833AF583E8F0DF
:10095E00225006E92582C8F622BBFE05E92582C88B
:02096E00F22273
:10097000C5F0F8A3E028F0C5F0F8E5821582700212
:060980001583E038F022AF
:100986007401FF3395E0FEFDFC080808E62FFFF62C
:1009960018E63EFEF618E63DFDF618E63CFCF622A5
:1009A600E3F5F009E208B5F06BDFF58067E3F5F0F3
:1009B60009E608B5F05EDFF5805A87F009E608B566
:1009C600F052DFF6804E87F009E208B5F046DFF612
:1009D600804288828C8387F009E0A3B5F036DFF683
:1009E600803288828C8387F009E493A3B5F025DFF3
:1009F600F5802188828C83E3F5F009E0A3B5F01435
:100A0600DFF5801088828C83E3F5F009E493A3B5C3
:100A1600F002DFF4020AD5808780E9809080D480D6
:100A26003E8015806E807E809D80B7808D80A380FD
:100A3600518074803C020AE189828A83ECFAE4934D
:100A4600F5F0A3C8C582C8CCC583CCE493A3C8C5BA
:100A560082C8CCC583CCB5F076DFE3DEE180708951
:100A6600828A83E493F5F0A3E208B5F062DFF480AE
:100A76005E89828A83E0F5F0A3E608B5F051DFF5DA
:100A8600804D89828A83E0F5F0A3E208B5F040DF65
:100A9600F5803C89828A83E493F5F0A3E608B5F0F5
:100AA6002EDFF4802A8002805789828A83ECFAE45A
:100AB60093F5F0A3C8C582C8CCC583CCE0A3C8C54E
:100AC60082C8CCC583CCB5F006DFE4DEE280007FC9
:100AD600FFB5F0020F2240027F012289828A83EC51
:100AE600FAE0F5F0A3C8C582C8CCC583CCE0A3C89C
:100AF600C582C8CCC583CCB5F0D5DFE5DEE380CFB3
:100B060089828A83ECFAE0F5F0A3C8C582C8CCC511
:100B160083CCE493A3C8C582C8CCC583CCB5F0AF5B
:100B2600DFE4DEE280A988F0EF60010E4E60ABEDF7
:100B36002402B404005098F582EB2402B404005059
:0A0B46008E2323458223900A1D73BD
:100F8900020C83E493A3F8E493A34003F68001F2EF
:100F990008DFF48029E493A3F85407240CC8C33369
:100FA900C4540F4420C8834004F456800146F6DF38
:100FB900E4800B01020408102040809010F9E47EBF
:100FC900019360BCA3FF543F30E509541FFEE4932D
:100FD900A360010ECF54C025E060A840B8E493A3F4
:100FE900FAE493A3F8E493A3C8C582C8CAC583CA1F
:100FF900F0A3C8C582C8CAC583CADFE9DEE780BED7
:0111140000DA
:00000001FF
